{
  "_format": "hh-sol-artifact-1",
  "contractName": "ReportHash",
  "sourceName": "contracts/reportHash.sol",
  "abi": [
    {
      "inputs": [],
      "stateMutability": "nonpayable",
      "type": "constructor"
    },
    {
      "anonymous": false,
      "inputs": [
        {
          "indexed": false,
          "internalType": "uint256",
          "name": "reportId",
          "type": "uint256"
        },
        {
          "indexed": false,
          "internalType": "string",
          "name": "reportHash",
          "type": "string"
        },
        {
          "indexed": false,
          "internalType": "address",
          "name": "reporter",
          "type": "address"
        }
      ],
      "name": "HashStored",
      "type": "event"
    },
    {
      "anonymous": false,
      "inputs": [
        {
          "indexed": false,
          "internalType": "uint256",
          "name": "reportId",
          "type": "uint256"
        },
        {
          "indexed": false,
          "internalType": "string",
          "name": "status",
          "type": "string"
        }
      ],
      "name": "StatusUpdated",
      "type": "event"
    },
    {
      "inputs": [],
      "name": "admin",
      "outputs": [
        {
          "internalType": "address",
          "name": "",
          "type": "address"
        }
      ],
      "stateMutability": "view",
      "type": "function"
    },
    {
      "inputs": [
        {
          "internalType": "uint256",
          "name": "reportId",
          "type": "uint256"
        }
      ],
      "name": "getReport",
      "outputs": [
        {
          "internalType": "string",
          "name": "reportHash",
          "type": "string"
        },
        {
          "internalType": "address",
          "name": "reporter",
          "type": "address"
        },
        {
          "internalType": "uint256",
          "name": "timestamp",
          "type": "uint256"
        },
        {
          "internalType": "string",
          "name": "status",
          "type": "string"
        }
      ],
      "stateMutability": "view",
      "type": "function"
    },
    {
      "inputs": [
        {
          "internalType": "uint256",
          "name": "reportId",
          "type": "uint256"
        },
        {
          "internalType": "string",
          "name": "reportHash",
          "type": "string"
        }
      ],
      "name": "storeReportHash",
      "outputs": [],
      "stateMutability": "nonpayable",
      "type": "function"
    },
    {
      "inputs": [
        {
          "internalType": "uint256",
          "name": "reportId",
          "type": "uint256"
        },
        {
          "internalType": "string",
          "name": "status",
          "type": "string"
        }
      ],
      "name": "updateStatus",
      "outputs": [],
      "stateMutability": "nonpayable",
      "type": "function"
    },
    {
      "inputs": [
        {
          "internalType": "uint256",
          "name": "reportId",
          "type": "uint256"
        },
        {
          "internalType": "string",
          "name": "reportHash",
          "type": "string"
        }
      ],
      "name": "verifyHash",
      "outputs": [
        {
          "internalType": "bool",
          "name": "",
          "type": "bool"
        }
      ],
      "stateMutability": "view",
      "type": "function"
    }
  ],
  "bytecode": "0x608060405234801561001057600080fd5b50336000806101000a81548173ffffffffffffffffffffffffffffffffffffffff021916908373ffffffffffffffffffffffffffffffffffffffff1602179055506110db806100606000396000f3fe608060405234801561001057600080fd5b50600436106100575760003560e01c80634e7f9b191461005c57806375c6e7811461008f578063a346d016146100bf578063d1b34dd8146100db578063f851a440146100f7575b600080fd5b610076600480360381019061007191906107c0565b610115565b60405161008694939291906108cd565b60405180910390f35b6100a960048036038101906100a49190610a55565b610364565b6040516100b69190610acc565b60405180910390f35b6100d960048036038101906100d49190610a55565b610435565b005b6100f560048036038101906100f09190610a55565b610600565b005b6100ff610752565b60405161010c9190610ae7565b60405180910390f35b606060008060606001600086815260200190815260200160002060040160009054906101000a900460ff1661017f576040517f08c379a000000000000000000000000000000000000000000000000000000000815260040161017690610b4e565b60405180910390fd5b6000600160008781526020019081526020016000206040518060a00160405290816000820180546101af90610b9d565b80601f01602080910402602001604051908101604052809291908181526020018280546101db90610b9d565b80156102285780601f106101fd57610100808354040283529160200191610228565b820191906000526020600020905b81548152906001019060200180831161020b57829003601f168201915b505050505081526020016001820160009054906101000a900473ffffffffffffffffffffffffffffffffffffffff1673ffffffffffffffffffffffffffffffffffffffff1673ffffffffffffffffffffffffffffffffffffffff168152602001600282015481526020016003820180546102a190610b9d565b80601f01602080910402602001604051908101604052809291908181526020018280546102cd90610b9d565b801561031a5780601f106102ef5761010080835404028352916020019161031a565b820191906000526020600020905b8154815290600101906020018083116102fd57829003601f168201915b505050505081526020016004820160009054906101000a900460ff161515151581525050905080600001518160200151826040015183606001519450945094509450509193509193565b60006001600084815260200190815260200160002060040160009054906101000a900460ff166103c9576040517f08c379a00000000000000000000000000000000000000000000000000000000081526004016103c090610b4e565b60405180910390fd5b816040516020016103da9190610c0a565b60405160208183030381529060405280519060200120600160008581526020019081526020016000206000016040516020016104169190610cb9565b6040516020818303038152906040528051906020012014905092915050565b6001600083815260200190815260200160002060040160009054906101000a900460ff1615610499576040517f08c379a000000000000000000000000000000000000000000000000000000000815260040161049090610d42565b60405180910390fd5b6040518060a001604052808281526020013373ffffffffffffffffffffffffffffffffffffffff1681526020014281526020016040518060400160405280600781526020017f50656e64696e67000000000000000000000000000000000000000000000000008152508152602001600115158152506001600084815260200190815260200160002060008201518160000190816105369190610ef9565b5060208201518160010160006101000a81548173ffffffffffffffffffffffffffffffffffffffff021916908373ffffffffffffffffffffffffffffffffffffffff16021790555060408201518160020155606082015181600301908161059d9190610ef9565b5060808201518160040160006101000a81548160ff0219169083151502179055509050507fe05a2d3e41f24f800458d1f94a7374edae7122ce6db1f9077e17f17f467965ab8282336040516105f493929190610fcb565b60405180910390a15050565b60008054906101000a900473ffffffffffffffffffffffffffffffffffffffff1673ffffffffffffffffffffffffffffffffffffffff163373ffffffffffffffffffffffffffffffffffffffff161461068e576040517f08c379a000000000000000000000000000000000000000000000000000000000815260040161068590611055565b60405180910390fd5b6001600083815260200190815260200160002060040160009054906101000a900460ff166106f1576040517f08c379a00000000000000000000000000000000000000000000000000000000081526004016106e890610b4e565b60405180910390fd5b806001600084815260200190815260200160002060030190816107149190610ef9565b507fdc280875b120650ffe3edf5f724f07fd086361a32c2a387fe34b495f5679e77d8282604051610746929190611075565b60405180910390a15050565b60008054906101000a900473ffffffffffffffffffffffffffffffffffffffff1681565b6000604051905090565b600080fd5b600080fd5b6000819050919050565b61079d8161078a565b81146107a857600080fd5b50565b6000813590506107ba81610794565b92915050565b6000602082840312156107d6576107d5610780565b5b60006107e4848285016107ab565b91505092915050565b600081519050919050565b600082825260208201905092915050565b60005b8381101561082757808201518184015260208101905061080c565b60008484015250505050565b6000601f19601f8301169050919050565b600061084f826107ed565b61085981856107f8565b9350610869818560208601610809565b61087281610833565b840191505092915050565b600073ffffffffffffffffffffffffffffffffffffffff82169050919050565b60006108a88261087d565b9050919050565b6108b88161089d565b82525050565b6108c78161078a565b82525050565b600060808201905081810360008301526108e78187610844565b90506108f660208301866108af565b61090360408301856108be565b81810360608301526109158184610844565b905095945050505050565b600080fd5b600080fd5b7f4e487b7100000000000000000000000000000000000000000000000000000000600052604160045260246000fd5b61096282610833565b810181811067ffffffffffffffff821117156109815761098061092a565b5b80604052505050565b6000610994610776565b90506109a08282610959565b919050565b600067ffffffffffffffff8211156109c0576109bf61092a565b5b6109c982610833565b9050602081019050919050565b82818337600083830152505050565b60006109f86109f3846109a5565b61098a565b905082815260208101848484011115610a1457610a13610925565b5b610a1f8482856109d6565b509392505050565b600082601f830112610a3c57610a3b610920565b5b8135610a4c8482602086016109e5565b91505092915050565b60008060408385031215610a6c57610a6b610780565b5b6000610a7a858286016107ab565b925050602083013567ffffffffffffffff811115610a9b57610a9a610785565b5b610aa785828601610a27565b9150509250929050565b60008115159050919050565b610ac681610ab1565b82525050565b6000602082019050610ae16000830184610abd565b92915050565b6000602082019050610afc60008301846108af565b92915050565b7f5265706f727420646f6573206e6f742065786973740000000000000000000000600082015250565b6000610b386015836107f8565b9150610b4382610b02565b602082019050919050565b60006020820190508181036000830152610b6781610b2b565b9050919050565b7f4e487b7100000000000000000000000000000000000000000000000000000000600052602260045260246000fd5b60006002820490506001821680610bb557607f821691505b602082108103610bc857610bc7610b6e565b5b50919050565b600081905092915050565b6000610be4826107ed565b610bee8185610bce565b9350610bfe818560208601610809565b80840191505092915050565b6000610c168284610bd9565b915081905092915050565b60008190508160005260206000209050919050565b60008154610c4381610b9d565b610c4d8186610bce565b94506001821660008114610c685760018114610c7d57610cb0565b60ff1983168652811515820286019350610cb0565b610c8685610c21565b60005b83811015610ca857815481890152600182019150602081019050610c89565b838801955050505b50505092915050565b6000610cc58284610c36565b915081905092915050565b7f4861736820616c72656164792073746f72656420666f7220746869732072657060008201527f6f72740000000000000000000000000000000000000000000000000000000000602082015250565b6000610d2c6023836107f8565b9150610d3782610cd0565b604082019050919050565b60006020820190508181036000830152610d5b81610d1f565b9050919050565b60006020601f8301049050919050565b600082821b905092915050565b600060088302610daf7fffffffffffffffffffffffffffffffffffffffffffffffffffffffffffffffff82610d72565b610db98683610d72565b95508019841693508086168417925050509392505050565b6000819050919050565b6000610df6610df1610dec8461078a565b610dd1565b61078a565b9050919050565b6000819050919050565b610e1083610ddb565b610e24610e1c82610dfd565b848454610d7f565b825550505050565b600090565b610e39610e2c565b610e44818484610e07565b505050565b5b81811015610e6857610e5d600082610e31565b600181019050610e4a565b5050565b601f821115610ead57610e7e81610c21565b610e8784610d62565b81016020851015610e96578190505b610eaa610ea285610d62565b830182610e49565b50505b505050565b600082821c905092915050565b6000610ed060001984600802610eb2565b1980831691505092915050565b6000610ee98383610ebf565b9150826002028217905092915050565b610f02826107ed565b67ffffffffffffffff811115610f1b57610f1a61092a565b5b610f258254610b9d565b610f30828285610e6c565b600060209050601f831160018114610f635760008415610f51578287015190505b610f5b8582610edd565b865550610fc3565b601f198416610f7186610c21565b60005b82811015610f9957848901518255600182019150602085019450602081019050610f74565b86831015610fb65784890151610fb2601f891682610ebf565b8355505b6001600288020188555050505b505050505050565b6000606082019050610fe060008301866108be565b8181036020830152610ff28185610844565b905061100160408301846108af565b949350505050565b7f4f6e6c792061646d696e2063616e2063616c6c20746869730000000000000000600082015250565b600061103f6018836107f8565b915061104a82611009565b602082019050919050565b6000602082019050818103600083015261106e81611032565b9050919050565b600060408201905061108a60008301856108be565b818103602083015261109c8184610844565b9050939250505056fea264697066735822122085c30c20bf5e83d424c665c4f334285fb2b8b352ffc65deeccbd34d58140bd6564736f6c63430008140033",
  "linkReferences": {},
  "deployedLinkReferences": {}
}